{
  "contractName": "Adoption",
  "abi": [
    {
      "inputs": [
        {
          "internalType": "uint256",
          "name": "",
          "type": "uint256"
        }
      ],
      "name": "adopters",
      "outputs": [
        {
          "internalType": "address",
          "name": "",
          "type": "address"
        }
      ],
      "stateMutability": "view",
      "type": "function",
      "constant": true
    },
    {
      "inputs": [
        {
          "internalType": "uint256",
          "name": "_petId",
          "type": "uint256"
        }
      ],
      "name": "adopt",
      "outputs": [
        {
          "internalType": "uint256",
          "name": "",
          "type": "uint256"
        }
      ],
      "stateMutability": "nonpayable",
      "type": "function"
    },
    {
      "inputs": [],
      "name": "getAdopters",
      "outputs": [
        {
          "internalType": "address[16]",
          "name": "",
          "type": "address[16]"
        }
      ],
      "stateMutability": "view",
      "type": "function",
      "constant": true
    },
    {
      "inputs": [
        {
          "internalType": "uint256",
          "name": "_petId",
          "type": "uint256"
        }
      ],
      "name": "removeAdoption",
      "outputs": [
        {
          "internalType": "uint256",
          "name": "",
          "type": "uint256"
        }
      ],
      "stateMutability": "nonpayable",
      "type": "function"
    }
  ],
  "bytecode": "0x608060405234801561001057600080fd5b506105e0806100206000396000f3fe608060405234801561001057600080fd5b506004361061004c5760003560e01c80633de4eb171461005157806343ae80d31461009757806368355894146100ef5780638588b2c514610131575b600080fd5b610059610173565b6040518082601060200280838360005b83811015610084578082015181840152602081019050610069565b5050505090500191505060405180910390f35b6100c3600480360360208110156100ad57600080fd5b81019080803590602001909291905050506101f4565b604051808273ffffffffffffffffffffffffffffffffffffffff16815260200191505060405180910390f35b61011b6004803603602081101561010557600080fd5b810190808035906020019092919050505061022a565b6040518082815260200191505060405180910390f35b61015d6004803603602081101561014757600080fd5b81019080803590602001909291905050506103b6565b6040518082815260200191505060405180910390f35b61017b610543565b60006010806020026040519081016040528092919082601080156101ea576020028201915b8160009054906101000a900473ffffffffffffffffffffffffffffffffffffffff1673ffffffffffffffffffffffffffffffffffffffff16815260200190600101908083116101a0575b5050505050905090565b6000816010811061020457600080fd5b016000915054906101000a900473ffffffffffffffffffffffffffffffffffffffff1681565b600080821015801561023d5750600f8211155b6102af576040517f08c379a000000000000000000000000000000000000000000000000000000000815260040180806020018281038252600d8152602001807f496e76616c69642070657449640000000000000000000000000000000000000081525060200191505060405180910390fd5b3373ffffffffffffffffffffffffffffffffffffffff16600083601081106102d357fe5b0160009054906101000a900473ffffffffffffffffffffffffffffffffffffffff1673ffffffffffffffffffffffffffffffffffffffff1614610361576040517f08c379a000000000000000000000000000000000000000000000000000000000815260040180806020018281038252602181526020018061058a6021913960400191505060405180910390fd5b600080836010811061036f57fe5b0160006101000a81548173ffffffffffffffffffffffffffffffffffffffff021916908373ffffffffffffffffffffffffffffffffffffffff160217905550819050919050565b60008082101580156103c95750600f8211155b61043b576040517f08c379a000000000000000000000000000000000000000000000000000000000815260040180806020018281038252600d8152602001807f496e76616c69642070657449640000000000000000000000000000000000000081525060200191505060405180910390fd5b600073ffffffffffffffffffffffffffffffffffffffff166000836010811061046057fe5b0160009054906101000a900473ffffffffffffffffffffffffffffffffffffffff1673ffffffffffffffffffffffffffffffffffffffff16146104ee576040517f08c379a00000000000000000000000000000000000000000000000000000000081526004018080602001828103825260238152602001806105676023913960400191505060405180910390fd5b33600083601081106104fc57fe5b0160006101000a81548173ffffffffffffffffffffffffffffffffffffffff021916908373ffffffffffffffffffffffffffffffffffffffff160217905550819050919050565b60405180610200016040528060109060208202803683378082019150509050509056fe43616e6e6f742061646f707420616e20616c72656164792061646f707465642070657443616c6c6572206d757374206265207468652061646f70746572206f6620706574a26469706673582212201dfdfe5d2d8eb3efb3d4834bcd52c3a512872960ccb3dd7002d895aeb7758f7d64736f6c63430007060033",
  "immutableReferences": {},
  "source": "    // SPDX-License-Identifier: UNLICENSED\n    pragma solidity ^0.7.6;\n\n    contract Adoption {\n    address[16] public adopters;\n\n    // Adopting a pet\n    function adopt(uint _petId) public returns (uint) {\n        require(_petId >= 0 && _petId <= 15, \"Invalid petId\");\n        require(adopters[_petId] == address(0), \"Cannot adopt an already adopted pet\");\n\n        adopters[_petId] = msg.sender;\n\n        return _petId;\n    }\n\n    // Retrieving the adopters\n    function getAdopters() public view returns (address[16] memory) {\n        return adopters;\n    }\n\n    // Remove adoption\n    function removeAdoption(uint _petId) public returns (uint) {\n        require(_petId >= 0 && _petId <= 15, \"Invalid petId\");\n        require(adopters[_petId] == msg.sender, \"Caller must be the adopter of pet\");\n\n        adopters[_petId] = address(0);\n\n        return _petId;\n    }\n    }",
  "sourcePath": "/home/zubair/Documents/react_work/petshop-dapp/contracts/Adoption.sol",
  "compiler": {
    "name": "solc",
    "version": "0.7.6+commit.7338295f.Emscripten.clang"
  },
  "schemaVersion": "3.3.4",
  "updatedAt": "2021-04-18T07:25:47.134Z",
  "networkType": "ethereum",
  "devdoc": {
    "kind": "dev",
    "methods": {},
    "version": 1
  },
  "userdoc": {
    "kind": "user",
    "methods": {},
    "version": 1
  }
}